{
  "_format": "hh-sol-artifact-1",
  "contractName": "WavePortal",
  "sourceName": "contracts/WavePortal.sol",
  "abi": [
    {
      "inputs": [],
      "stateMutability": "nonpayable",
      "type": "constructor"
    },
    {
      "anonymous": false,
      "inputs": [
        {
          "indexed": true,
          "internalType": "address",
          "name": "from",
          "type": "address"
        },
        {
          "indexed": false,
          "internalType": "uint256",
          "name": "timestamp",
          "type": "uint256"
        },
        {
          "indexed": false,
          "internalType": "string",
          "name": "message",
          "type": "string"
        }
      ],
      "name": "NewWave",
      "type": "event"
    },
    {
      "inputs": [
        {
          "internalType": "uint256",
          "name": "",
          "type": "uint256"
        }
      ],
      "name": "addresses",
      "outputs": [
        {
          "internalType": "address",
          "name": "",
          "type": "address"
        }
      ],
      "stateMutability": "view",
      "type": "function"
    },
    {
      "inputs": [],
      "name": "getAddresses",
      "outputs": [
        {
          "internalType": "address[]",
          "name": "",
          "type": "address[]"
        }
      ],
      "stateMutability": "view",
      "type": "function"
    },
    {
      "inputs": [],
      "name": "getAllWaves",
      "outputs": [
        {
          "components": [
            {
              "internalType": "address",
              "name": "waver",
              "type": "address"
            },
            {
              "internalType": "string",
              "name": "message",
              "type": "string"
            },
            {
              "internalType": "uint256",
              "name": "timestamp",
              "type": "uint256"
            }
          ],
          "internalType": "struct WavePortal.Wave[]",
          "name": "",
          "type": "tuple[]"
        }
      ],
      "stateMutability": "view",
      "type": "function"
    },
    {
      "inputs": [],
      "name": "getTotalWaves",
      "outputs": [
        {
          "internalType": "uint256",
          "name": "",
          "type": "uint256"
        }
      ],
      "stateMutability": "view",
      "type": "function"
    },
    {
      "inputs": [
        {
          "internalType": "string",
          "name": "_message",
          "type": "string"
        }
      ],
      "name": "wave",
      "outputs": [],
      "stateMutability": "nonpayable",
      "type": "function"
    }
  ],
  "bytecode": "0x60806040523480156200001157600080fd5b506200004160405180606001604052806026815260200162001331602691396200004760201b620005861760201c565b620001db565b620000e7816040516024016200005e919062000154565b6040516020818303038152906040527f41304fac000000000000000000000000000000000000000000000000000000007bffffffffffffffffffffffffffffffffffffffffffffffffffffffff19166020820180517bffffffffffffffffffffffffffffffffffffffffffffffffffffffff8381831617835250505050620000ea60201b60201c565b50565b60008151905060006a636f6e736f6c652e6c6f679050602083016000808483855afa5050505050565b6000620001208262000178565b6200012c818562000183565b93506200013e81856020860162000194565b6200014981620001ca565b840191505092915050565b6000602082019050818103600083015262000170818462000113565b905092915050565b600081519050919050565b600082825260208201905092915050565b60005b83811015620001b457808201518184015260208101905062000197565b83811115620001c4576000848401525b50505050565b6000601f19601f8301169050919050565b61114680620001eb6000396000f3fe608060405234801561001057600080fd5b50600436106100575760003560e01c8063449d46c01461005c5780639a2cdc0814610078578063a39fac1214610096578063bd43a908146100b4578063edf26d9b146100d2575b600080fd5b61007660048036038101906100719190610a4c565b610102565b005b610080610283565b60405161008d9190610da9565b60405180910390f35b61009e6102ce565b6040516100ab9190610cce565b60405180910390f35b6100bc6103f6565b6040516100c99190610cf0565b60405180910390f35b6100ec60048036038101906100e79190610a8d565b610547565b6040516100f99190610cb3565b60405180910390f35b60016000808282546101149190610ef4565b9250508190555061015b6040518060400160405280601a81526020017f25732068617320776176656420772f206d657373616765202573000000000000815250338361061f565b610164336106be565b600360405180606001604052803373ffffffffffffffffffffffffffffffffffffffff16815260200183815260200142815250908060018154018082558091505060019003906000526020600020906003020160009091909190915060008201518160000160006101000a81548173ffffffffffffffffffffffffffffffffffffffff021916908373ffffffffffffffffffffffffffffffffffffffff160217905550602082015181600101908051906020019061022392919061092c565b506040820151816002015550503373ffffffffffffffffffffffffffffffffffffffff167f5f7e16dc676677766a70e9c5628aa6c54ddb8b6e5188e2ae1e1f17f1ffbea7164283604051610278929190610dc4565b60405180910390a250565b60006102c66040518060400160405280601881526020017f5765206861766520256420746f74616c207761766573210a00000000000000008152506000546107ce565b600054905090565b60606000600180548060200260200160405190810160405280929190818152602001828054801561035457602002820191906000526020600020905b8160009054906101000a900473ffffffffffffffffffffffffffffffffffffffff1673ffffffffffffffffffffffffffffffffffffffff168152602001906001019080831161030a575b5050505050905061037c6040518060600160405280602481526020016110ed60249139610586565b60005b81518163ffffffff1610156103ee576103dd828263ffffffff16815181106103d0577f4e487b7100000000000000000000000000000000000000000000000000000000600052603260045260246000fd5b602002602001015161086a565b806103e79061100a565b905061037f565b508091505090565b60606003805480602002602001604051908101604052809291908181526020016000905b8282101561053e57838290600052602060002090600302016040518060600160405290816000820160009054906101000a900473ffffffffffffffffffffffffffffffffffffffff1673ffffffffffffffffffffffffffffffffffffffff1673ffffffffffffffffffffffffffffffffffffffff1681526020016001820180546104a390610fd8565b80601f01602080910402602001604051908101604052809291908181526020018280546104cf90610fd8565b801561051c5780601f106104f15761010080835404028352916020019161051c565b820191906000526020600020905b8154815290600101906020018083116104ff57829003601f168201915b505050505081526020016002820154815250508152602001906001019061041a565b50505050905090565b6001818154811061055757600080fd5b906000526020600020016000915054906101000a900473ffffffffffffffffffffffffffffffffffffffff1681565b61061c8160405160240161059a9190610d12565b6040516020818303038152906040527f41304fac000000000000000000000000000000000000000000000000000000007bffffffffffffffffffffffffffffffffffffffffffffffffffffffff19166020820180517bffffffffffffffffffffffffffffffffffffffffffffffffffffffff8381831617835250505050610903565b50565b6106b983838360405160240161063793929190610d34565b6040516020818303038152906040527fe0e9ad4f000000000000000000000000000000000000000000000000000000007bffffffffffffffffffffffffffffffffffffffffffffffffffffffff19166020820180517bffffffffffffffffffffffffffffffffffffffffffffffffffffffff8381831617835250505050610903565b505050565b600260008273ffffffffffffffffffffffffffffffffffffffff1673ffffffffffffffffffffffffffffffffffffffff16815260200190815260200160002060009054906101000a900460ff166107cb576001600260008373ffffffffffffffffffffffffffffffffffffffff1673ffffffffffffffffffffffffffffffffffffffff16815260200190815260200160002060006101000a81548160ff0219169083151502179055506001819080600181540180825580915050600190039060005260206000200160009091909190916101000a81548173ffffffffffffffffffffffffffffffffffffffff021916908373ffffffffffffffffffffffffffffffffffffffff1602179055505b50565b61086682826040516024016107e4929190610d79565b6040516020818303038152906040527f9710a9d0000000000000000000000000000000000000000000000000000000007bffffffffffffffffffffffffffffffffffffffffffffffffffffffff19166020820180517bffffffffffffffffffffffffffffffffffffffffffffffffffffffff8381831617835250505050610903565b5050565b6109008160405160240161087e9190610cb3565b6040516020818303038152906040527f2c2ecbc2000000000000000000000000000000000000000000000000000000007bffffffffffffffffffffffffffffffffffffffffffffffffffffffff19166020820180517bffffffffffffffffffffffffffffffffffffffffffffffffffffffff8381831617835250505050610903565b50565b60008151905060006a636f6e736f6c652e6c6f679050602083016000808483855afa5050505050565b82805461093890610fd8565b90600052602060002090601f01602090048101928261095a57600085556109a1565b82601f1061097357805160ff19168380011785556109a1565b828001600101855582156109a1579182015b828111156109a0578251825591602001919060010190610985565b5b5090506109ae91906109b2565b5090565b5b808211156109cb5760008160009055506001016109b3565b5090565b60006109e26109dd84610e25565b610df4565b9050828152602081018484840111156109fa57600080fd5b610a05848285610f96565b509392505050565b600082601f830112610a1e57600080fd5b8135610a2e8482602086016109cf565b91505092915050565b600081359050610a46816110d5565b92915050565b600060208284031215610a5e57600080fd5b600082013567ffffffffffffffff811115610a7857600080fd5b610a8484828501610a0d565b91505092915050565b600060208284031215610a9f57600080fd5b6000610aad84828501610a37565b91505092915050565b6000610ac28383610ae2565b60208301905092915050565b6000610ada8383610c45565b905092915050565b610aeb81610f4a565b82525050565b610afa81610f4a565b82525050565b6000610b0b82610e75565b610b158185610eb0565b9350610b2083610e55565b8060005b83811015610b51578151610b388882610ab6565b9750610b4383610e96565b925050600181019050610b24565b5085935050505092915050565b6000610b6982610e80565b610b738185610ec1565b935083602082028501610b8585610e65565b8060005b85811015610bc15784840389528151610ba28582610ace565b9450610bad83610ea3565b925060208a01995050600181019050610b89565b50829750879550505050505092915050565b6000610bde82610e8b565b610be88185610ed2565b9350610bf8818560208601610fa5565b610c01816110c4565b840191505092915050565b6000610c1782610e8b565b610c218185610ee3565b9350610c31818560208601610fa5565b610c3a816110c4565b840191505092915050565b6000606083016000830151610c5d6000860182610ae2565b5060208301518482036020860152610c758282610bd3565b9150506040830151610c8a6040860182610c95565b508091505092915050565b610c9e81610f7c565b82525050565b610cad81610f7c565b82525050565b6000602082019050610cc86000830184610af1565b92915050565b60006020820190508181036000830152610ce88184610b00565b905092915050565b60006020820190508181036000830152610d0a8184610b5e565b905092915050565b60006020820190508181036000830152610d2c8184610c0c565b905092915050565b60006060820190508181036000830152610d4e8186610c0c565b9050610d5d6020830185610af1565b8181036040830152610d6f8184610c0c565b9050949350505050565b60006040820190508181036000830152610d938185610c0c565b9050610da26020830184610ca4565b9392505050565b6000602082019050610dbe6000830184610ca4565b92915050565b6000604082019050610dd96000830185610ca4565b8181036020830152610deb8184610c0c565b90509392505050565b6000604051905081810181811067ffffffffffffffff82111715610e1b57610e1a611095565b5b8060405250919050565b600067ffffffffffffffff821115610e4057610e3f611095565b5b601f19601f8301169050602081019050919050565b6000819050602082019050919050565b6000819050602082019050919050565b600081519050919050565b600081519050919050565b600081519050919050565b6000602082019050919050565b6000602082019050919050565b600082825260208201905092915050565b600082825260208201905092915050565b600082825260208201905092915050565b600082825260208201905092915050565b6000610eff82610f7c565b9150610f0a83610f7c565b9250827fffffffffffffffffffffffffffffffffffffffffffffffffffffffffffffffff03821115610f3f57610f3e611037565b5b828201905092915050565b6000610f5582610f5c565b9050919050565b600073ffffffffffffffffffffffffffffffffffffffff82169050919050565b6000819050919050565b600063ffffffff82169050919050565b82818337600083830152505050565b60005b83811015610fc3578082015181840152602081019050610fa8565b83811115610fd2576000848401525b50505050565b60006002820490506001821680610ff057607f821691505b6020821081141561100457611003611066565b5b50919050565b600061101582610f86565b915063ffffffff82141561102c5761102b611037565b5b600182019050919050565b7f4e487b7100000000000000000000000000000000000000000000000000000000600052601160045260246000fd5b7f4e487b7100000000000000000000000000000000000000000000000000000000600052602260045260246000fd5b7f4e487b7100000000000000000000000000000000000000000000000000000000600052604160045260246000fd5b6000601f19601f8301169050919050565b6110de81610f7c565b81146110e957600080fd5b5056fe4c697374206f6620756e697175652061646472657373657320746861742077617665643aa2646970667358221220494e5aaaa56fe8dd273538681fe9256805b219e5e17f9888418a9be90d125bd464736f6c63430008000033596f20796f2c204920616d206120636f6e747261637420616e64204920616d20736d6172740a",
  "linkReferences": {},
  "deployedLinkReferences": {}
}