{
    "_format": "hh-sol-artifact-1",
    "contractName": "WavePortal",
    "sourceName": "contracts/WavePortal.sol",
    "abi": [
        {
            "inputs": [],
            "stateMutability": "nonpayable",
            "type": "constructor"
        },
        {
            "inputs": [
                {
                    "internalType": "uint256",
                    "name": "",
                    "type": "uint256"
                }
            ],
            "name": "addresses",
            "outputs": [
                {
                    "internalType": "address",
                    "name": "",
                    "type": "address"
                }
            ],
            "stateMutability": "view",
            "type": "function"
        },
        {
            "inputs": [],
            "name": "getAddresses",
            "outputs": [
                {
                    "internalType": "address[]",
                    "name": "",
                    "type": "address[]"
                }
            ],
            "stateMutability": "view",
            "type": "function"
        },
        {
            "inputs": [],
            "name": "getTotalWaves",
            "outputs": [
                {
                    "internalType": "uint256",
                    "name": "",
                    "type": "uint256"
                }
            ],
            "stateMutability": "view",
            "type": "function"
        },
        {
            "inputs": [],
            "name": "wave",
            "outputs": [],
            "stateMutability": "nonpayable",
            "type": "function"
        }
    ],
    "bytecode": "0x608060405234801561001057600080fd5b5061003c604051806060016040528060268152602001610c4e6026913961004160201b6102dc1760201c565b6101c4565b6100dd816040516024016100559190610142565b6040516020818303038152906040527f41304fac000000000000000000000000000000000000000000000000000000007bffffffffffffffffffffffffffffffffffffffffffffffffffffffff19166020820180517bffffffffffffffffffffffffffffffffffffffffffffffffffffffff83818316178352505050506100e060201b60201c565b50565b60008151905060006a636f6e736f6c652e6c6f679050602083016000808483855afa5050505050565b600061011482610164565b61011e818561016f565b935061012e818560208601610180565b610137816101b3565b840191505092915050565b6000602082019050818103600083015261015c8184610109565b905092915050565b600081519050919050565b600082825260208201905092915050565b60005b8381101561019e578082015181840152602081019050610183565b838111156101ad576000848401525b50505050565b6000601f19601f8301169050919050565b610a7b806101d36000396000f3fe608060405234801561001057600080fd5b506004361061004c5760003560e01c80636fe15b44146100515780639a2cdc081461005b578063a39fac1214610079578063edf26d9b14610097575b600080fd5b6100596100c7565b005b61006361012a565b6040516100709190610858565b60405180910390f35b610081610175565b60405161008e91906107b4565b60405180910390f35b6100b160048036038101906100ac9190610694565b61029d565b6040516100be9190610799565b60405180910390f35b60016000808282546100d991906108c8565b9250508190555061011f6040518060400160405280600d81526020017f257320686173207761766564210000000000000000000000000000000000000081525033610375565b61012833610411565b565b600061016d6040518060400160405280601881526020017f5765206861766520256420746f74616c207761766573210a0000000000000000815250600054610521565b600054905090565b6060600060018054806020026020016040519081016040528092919081815260200182805480156101fb57602002820191906000526020600020905b8160009054906101000a900473ffffffffffffffffffffffffffffffffffffffff1673ffffffffffffffffffffffffffffffffffffffff16815260200190600101908083116101b1575b50505050509050610223604051806060016040528060248152602001610a22602491396102dc565b60005b81518163ffffffff16101561029557610284828263ffffffff1681518110610277577f4e487b7100000000000000000000000000000000000000000000000000000000600052603260045260246000fd5b60200260200101516105bd565b8061028e9061099d565b9050610226565b508091505090565b600181815481106102ad57600080fd5b906000526020600020016000915054906101000a900473ffffffffffffffffffffffffffffffffffffffff1681565b610372816040516024016102f091906107d6565b6040516020818303038152906040527f41304fac000000000000000000000000000000000000000000000000000000007bffffffffffffffffffffffffffffffffffffffffffffffffffffffff19166020820180517bffffffffffffffffffffffffffffffffffffffffffffffffffffffff8381831617835250505050610656565b50565b61040d828260405160240161038b9291906107f8565b6040516020818303038152906040527f319af333000000000000000000000000000000000000000000000000000000007bffffffffffffffffffffffffffffffffffffffffffffffffffffffff19166020820180517bffffffffffffffffffffffffffffffffffffffffffffffffffffffff8381831617835250505050610656565b5050565b600260008273ffffffffffffffffffffffffffffffffffffffff1673ffffffffffffffffffffffffffffffffffffffff16815260200190815260200160002060009054906101000a900460ff1661051e576001600260008373ffffffffffffffffffffffffffffffffffffffff1673ffffffffffffffffffffffffffffffffffffffff16815260200190815260200160002060006101000a81548160ff0219169083151502179055506001819080600181540180825580915050600190039060005260206000200160009091909190916101000a81548173ffffffffffffffffffffffffffffffffffffffff021916908373ffffffffffffffffffffffffffffffffffffffff1602179055505b50565b6105b98282604051602401610537929190610828565b6040516020818303038152906040527f9710a9d0000000000000000000000000000000000000000000000000000000007bffffffffffffffffffffffffffffffffffffffffffffffffffffffff19166020820180517bffffffffffffffffffffffffffffffffffffffffffffffffffffffff8381831617835250505050610656565b5050565b610653816040516024016105d19190610799565b6040516020818303038152906040527f2c2ecbc2000000000000000000000000000000000000000000000000000000007bffffffffffffffffffffffffffffffffffffffffffffffffffffffff19166020820180517bffffffffffffffffffffffffffffffffffffffffffffffffffffffff8381831617835250505050610656565b50565b60008151905060006a636f6e736f6c652e6c6f679050602083016000808483855afa5050505050565b60008135905061068e81610a0a565b92915050565b6000602082840312156106a657600080fd5b60006106b48482850161067f565b91505092915050565b60006106c983836106d5565b60208301905092915050565b6106de8161091e565b82525050565b6106ed8161091e565b82525050565b60006106fe82610883565b61070881856108a6565b935061071383610873565b8060005b8381101561074457815161072b88826106bd565b975061073683610899565b925050600181019050610717565b5085935050505092915050565b600061075c8261088e565b61076681856108b7565b935061077681856020860161096a565b61077f816109f9565b840191505092915050565b61079381610950565b82525050565b60006020820190506107ae60008301846106e4565b92915050565b600060208201905081810360008301526107ce81846106f3565b905092915050565b600060208201905081810360008301526107f08184610751565b905092915050565b600060408201905081810360008301526108128185610751565b905061082160208301846106e4565b9392505050565b600060408201905081810360008301526108428185610751565b9050610851602083018461078a565b9392505050565b600060208201905061086d600083018461078a565b92915050565b6000819050602082019050919050565b600081519050919050565b600081519050919050565b6000602082019050919050565b600082825260208201905092915050565b600082825260208201905092915050565b60006108d382610950565b91506108de83610950565b9250827fffffffffffffffffffffffffffffffffffffffffffffffffffffffffffffffff03821115610913576109126109ca565b5b828201905092915050565b600061092982610930565b9050919050565b600073ffffffffffffffffffffffffffffffffffffffff82169050919050565b6000819050919050565b600063ffffffff82169050919050565b60005b8381101561098857808201518184015260208101905061096d565b83811115610997576000848401525b50505050565b60006109a88261095a565b915063ffffffff8214156109bf576109be6109ca565b5b600182019050919050565b7f4e487b7100000000000000000000000000000000000000000000000000000000600052601160045260246000fd5b6000601f19601f8301169050919050565b610a1381610950565b8114610a1e57600080fd5b5056fe4c697374206f6620756e697175652061646472657373657320746861742077617665643aa2646970667358221220a320f6ff5fcf81471fee9a3599c08d2946a3f8808aa9691385f21bc4556ef73864736f6c63430008000033596f20796f2c204920616d206120636f6e747261637420616e64204920616d20736d6172740a",
    "linkReferences": {},
    "deployedLinkReferences": {}
}